{
  "transactions": [
    {
      "hash": "0xb0718ccd7318e5bbe3f5bf10ba2416354bf889aca6415d6480932dec4e29fecc",
      "transactionType": "CALL",
      "contractName": null,
      "contractAddress": "0xd46836eab8ed37c8a157e5668764b0549d9f2ff8",
      "function": "approve(address,uint256)",
      "arguments": [
        "0x000000000022D473030F116dDEE9F6B43aC78BA3",
        "115792089237316195423570985008687907853269984665640564039457584007913129639935"
      ],
      "transaction": {
        "from": "0x228a49443c9fb42eb71c4b2a4c08d64ba9c6b6cc",
        "to": "0xd46836eab8ed37c8a157e5668764b0549d9f2ff8",
        "gas": "0x10c6b",
        "value": "0x0",
        "input": "0x095ea7b3000000000000000000000000000000000022d473030f116ddee9f6b43ac78ba3ffffffffffffffffffffffffffffffffffffffffffffffffffffffffffffffff",
        "nonce": "0x11",
        "chainId": "0xaa36a7"
      },
      "additionalContracts": [],
      "isFixedGasLimit": false
    },
    {
      "hash": "0xda80d98f030cba4f9211567e06d357dfd55844e446799d5536d295c6d95d9c60",
      "transactionType": "CALL",
      "contractName": null,
      "contractAddress": "0x000000000022d473030f116ddee9f6b43ac78ba3",
      "function": "approve(address,address,uint160,uint48)",
      "arguments": [
        "0xD46836eaB8ED37C8A157E5668764B0549D9F2ff8",
        "0x429ba70129df741B2Ca2a85BC3A2a3328e5c09b4",
        "1461501637330902918203684832716283019655932542975",
        "281474976710655"
      ],
      "transaction": {
        "from": "0x228a49443c9fb42eb71c4b2a4c08d64ba9c6b6cc",
        "to": "0x000000000022d473030f116ddee9f6b43ac78ba3",
        "gas": "0x1112d",
        "value": "0x0",
        "input": "0x87517c45000000000000000000000000d46836eab8ed37c8a157e5668764b0549d9f2ff8000000000000000000000000429ba70129df741b2ca2a85bc3a2a3328e5c09b4000000000000000000000000ffffffffffffffffffffffffffffffffffffffff0000000000000000000000000000000000000000000000000000ffffffffffff",
        "nonce": "0x12",
        "chainId": "0xaa36a7"
      },
      "additionalContracts": [],
      "isFixedGasLimit": false
    },
    {
      "hash": "0x96519028f8cd78dcbd42367f426b5920d50e979ec759735d6717188241e52683",
      "transactionType": "CALL",
      "contractName": null,
      "contractAddress": "0x115f0e0648ccb0a6d936cfcec1445a9d7ec53c9b",
      "function": "approve(address,uint256)",
      "arguments": [
        "0x000000000022D473030F116dDEE9F6B43aC78BA3",
        "115792089237316195423570985008687907853269984665640564039457584007913129639935"
      ],
      "transaction": {
        "from": "0x228a49443c9fb42eb71c4b2a4c08d64ba9c6b6cc",
        "to": "0x115f0e0648ccb0a6d936cfcec1445a9d7ec53c9b",
        "gas": "0x10c6b",
        "value": "0x0",
        "input": "0x095ea7b3000000000000000000000000000000000022d473030f116ddee9f6b43ac78ba3ffffffffffffffffffffffffffffffffffffffffffffffffffffffffffffffff",
        "nonce": "0x13",
        "chainId": "0xaa36a7"
      },
      "additionalContracts": [],
      "isFixedGasLimit": false
    },
    {
      "hash": "0x03b18e327020654cb11b08cd59672f4eb3c0b49f9c7d937d20295301a6e5ebbf",
      "transactionType": "CALL",
      "contractName": null,
      "contractAddress": "0x000000000022d473030f116ddee9f6b43ac78ba3",
      "function": "approve(address,address,uint160,uint48)",
      "arguments": [
        "0x115f0E0648CCb0a6d936cFcEc1445a9d7Ec53c9B",
        "0x429ba70129df741B2Ca2a85BC3A2a3328e5c09b4",
        "1461501637330902918203684832716283019655932542975",
        "281474976710655"
      ],
      "transaction": {
        "from": "0x228a49443c9fb42eb71c4b2a4c08d64ba9c6b6cc",
        "to": "0x000000000022d473030f116ddee9f6b43ac78ba3",
        "gas": "0x1112d",
        "value": "0x0",
        "input": "0x87517c45000000000000000000000000115f0e0648ccb0a6d936cfcec1445a9d7ec53c9b000000000000000000000000429ba70129df741b2ca2a85bc3a2a3328e5c09b4000000000000000000000000ffffffffffffffffffffffffffffffffffffffff0000000000000000000000000000000000000000000000000000ffffffffffff",
        "nonce": "0x14",
        "chainId": "0xaa36a7"
      },
      "additionalContracts": [],
      "isFixedGasLimit": false
    },
    {
      "hash": "0x6f1983d7bd37324043eae0511590e30ebcd9973741c8e2fc8f96379f5c6134da",
      "transactionType": "CALL",
      "contractName": null,
      "contractAddress": "0x429ba70129df741b2ca2a85bc3a2a3328e5c09b4",
      "function": "multicall(bytes[])",
      "arguments": [
        "[0xf7020405000000000000000000000000115f0e0648ccb0a6d936cfcec1445a9d7ec53c9b000000000000000000000000d46836eab8ed37c8a157e5668764b0549d9f2ff80000000000000000000000000000000000000000000000000000000000800000000000000000000000000000000000000000000000000000000000000000003c00000000000000000000000053b1b0a39eb0d674a2d8daa8d99c4ffa476bc080000000000000000000000000000000000000000100000000000000000000000000000000000000000000000000000000000000000000000000000000000000e00000000000000000000000000000000000000000000000000000000000000000, 0xdd46508f0000000000000000000000000000000000000000000000000000000000000040000000000000000000000000000000000000000000000000000000006a5d5f3c0000000000000000000000000000000000000000000000000000000000000400000000000000000000000000000000000000000000000000000000000000004000000000000000000000000000000000000000000000000000000000000000800000000000000000000000000000000000000000000000000000000000000004020d14140000000000000000000000000000000000000000000000000000000000000000000000000000000000000000000000000000000000000000000000040000000000000000000000000000000000000000000000000000000000000080000000000000000000000000000000000000000000000000000000000000024000000000000000000000000000000000000000000000000000000000000002a0000000000000000000000000000000000000000000000000000000000000030000000000000000000000000000000000000000000000000000000000000001a0000000000000000000000000115f0e0648ccb0a6d936cfcec1445a9d7ec53c9b000000000000000000000000d46836eab8ed37c8a157e5668764b0549d9f2ff80000000000000000000000000000000000000000000000000000000000800000000000000000000000000000000000000000000000000000000000000000003c00000000000000000000000053b1b0a39eb0d674a2d8daa8d99c4ffa476bc080ffffffffffffffffffffffffffffffffffffffffffffffffffffffffffff5038000000000000000000000000000000000000000000000000000000000000afc80000000000000000000000000000000000000000000000060f4da7fe284f5dea0000000000000000000000000000000000000000000000056bc75e2d631000010000000000000000000000000000000000000000000000056bc75e2d63100001000000000000000000000000228a49443c9fb42eb71c4b2a4c08d64ba9c6b6cc000000000000000000000000000000000000000000000000000000000000018000000000000000000000000000000000000000000000000000000000000000000000000000000000000000000000000000000000000000000000000000000040000000000000000000000000115f0e0648ccb0a6d936cfcec1445a9d7ec53c9b000000000000000000000000d46836eab8ed37c8a157e5668764b0549d9f2ff80000000000000000000000000000000000000000000000000000000000000040000000000000000000000000115f0e0648ccb0a6d936cfcec1445a9d7ec53c9b000000000000000000000000228a49443c9fb42eb71c4b2a4c08d64ba9c6b6cc0000000000000000000000000000000000000000000000000000000000000040000000000000000000000000d46836eab8ed37c8a157e5668764b0549d9f2ff8000000000000000000000000228a49443c9fb42eb71c4b2a4c08d64ba9c6b6cc]"
      ],
      "transaction": {
        "from": "0x228a49443c9fb42eb71c4b2a4c08d64ba9c6b6cc",
        "to": "0x429ba70129df741b2ca2a85bc3a2a3328e5c09b4",
        "gas": "0xaee2d",
        "value": "0x0",
        "input": "0xac9650d800000000000000000000000000000000000000000000000000000000000000200000000000000000000000000000000000000000000000000000000000000002000000000000000000000000000000000000000000000000000000000000004000000000000000000000000000000000000000000000000000000000000001800000000000000000000000000000000000000000000000000000000000000104f7020405000000000000000000000000115f0e0648ccb0a6d936cfcec1445a9d7ec53c9b000000000000000000000000d46836eab8ed37c8a157e5668764b0549d9f2ff80000000000000000000000000000000000000000000000000000000000800000000000000000000000000000000000000000000000000000000000000000003c00000000000000000000000053b1b0a39eb0d674a2d8daa8d99c4ffa476bc080000000000000000000000000000000000000000100000000000000000000000000000000000000000000000000000000000000000000000000000000000000e00000000000000000000000000000000000000000000000000000000000000000000000000000000000000000000000000000000000000000000000000000000000000000000000000000000000000000000000000000000000000464dd46508f0000000000000000000000000000000000000000000000000000000000000040000000000000000000000000000000000000000000000000000000006a5d5f3c0000000000000000000000000000000000000000000000000000000000000400000000000000000000000000000000000000000000000000000000000000004000000000000000000000000000000000000000000000000000000000000000800000000000000000000000000000000000000000000000000000000000000004020d14140000000000000000000000000000000000000000000000000000000000000000000000000000000000000000000000000000000000000000000000040000000000000000000000000000000000000000000000000000000000000080000000000000000000000000000000000000000000000000000000000000024000000000000000000000000000000000000000000000000000000000000002a0000000000000000000000000000000000000000000000000000000000000030000000000000000000000000000000000000000000000000000000000000001a0000000000000000000000000115f0e0648ccb0a6d936cfcec1445a9d7ec53c9b000000000000000000000000d46836eab8ed37c8a157e5668764b0549d9f2ff80000000000000000000000000000000000000000000000000000000000800000000000000000000000000000000000000000000000000000000000000000003c00000000000000000000000053b1b0a39eb0d674a2d8daa8d99c4ffa476bc080ffffffffffffffffffffffffffffffffffffffffffffffffffffffffffff5038000000000000000000000000000000000000000000000000000000000000afc80000000000000000000000000000000000000000000000060f4da7fe284f5dea0000000000000000000000000000000000000000000000056bc75e2d631000010000000000000000000000000000000000000000000000056bc75e2d63100001000000000000000000000000228a49443c9fb42eb71c4b2a4c08d64ba9c6b6cc000000000000000000000000000000000000000000000000000000000000018000000000000000000000000000000000000000000000000000000000000000000000000000000000000000000000000000000000000000000000000000000040000000000000000000000000115f0e0648ccb0a6d936cfcec1445a9d7ec53c9b000000000000000000000000d46836eab8ed37c8a157e5668764b0549d9f2ff80000000000000000000000000000000000000000000000000000000000000040000000000000000000000000115f0e0648ccb0a6d936cfcec1445a9d7ec53c9b000000000000000000000000228a49443c9fb42eb71c4b2a4c08d64ba9c6b6cc0000000000000000000000000000000000000000000000000000000000000040000000000000000000000000d46836eab8ed37c8a157e5668764b0549d9f2ff8000000000000000000000000228a49443c9fb42eb71c4b2a4c08d64ba9c6b6cc00000000000000000000000000000000000000000000000000000000",
        "nonce": "0x15",
        "chainId": "0xaa36a7"
      },
      "additionalContracts": [],
      "isFixedGasLimit": false
    }
  ],
  "receipts": [
    {
      "status": "0x1",
      "cumulativeGasUsed": "0xaa8850",
      "logs": [
        {
          "address": "0xd46836eab8ed37c8a157e5668764b0549d9f2ff8",
          "topics": [
            "0x8c5be1e5ebec7d5bd14f71427d1e84f3dd0314c0f7b2291e5b200ac8c7c3b925",
            "0x000000000000000000000000228a49443c9fb42eb71c4b2a4c08d64ba9c6b6cc",
            "0x000000000000000000000000000000000022d473030f116ddee9f6b43ac78ba3"
          ],
          "data": "0xffffffffffffffffffffffffffffffffffffffffffffffffffffffffffffffff",
          "blockHash": "0x505985670f8df9c21c889aaa643f7a6362e7478fa1e05c8622ffef633ff8ed5b",
          "blockNumber": "0xac8e9f",
          "blockTimestamp": "0x6a5d5144",
          "transactionHash": "0xda80d98f030cba4f9211567e06d357dfd55844e446799d5536d295c6d95d9c60",
          "transactionIndex": "0x41",
          "logIndex": "0x20f",
          "removed": false
        }
      ],
      "logsBloom": "0x00000000000000000000000000200000000000000000000000000000000000000000000000000000000000000000000000000000800000000000000000200000000000000000000000004000000000000000000000000800000000000000000000000020000010000000000000000000000000000000000000080000000000000000000000000000000000000000000000000000000000000000000000000000020000000000000000000000000000000000000000000000000000000000000000200000000000000000000000000000000000000000000000000000000000000010000000000000000000000000000000000100000000000000000000000000",
      "type": "0x2",
      "transactionHash": "0xda80d98f030cba4f9211567e06d357dfd55844e446799d5536d295c6d95d9c60",
      "transactionIndex": "0x41",
      "blockHash": "0x505985670f8df9c21c889aaa643f7a6362e7478fa1e05c8622ffef633ff8ed5b",
      "blockNumber": "0xac8e9f",
      "gasUsed": "0xb789",
      "effectiveGasPrice": "0x414c80f5",
      "from": "0x228a49443c9fb42eb71c4b2a4c08d64ba9c6b6cc",
      "to": "0xd46836eab8ed37c8a157e5668764b0549d9f2ff8",
      "contractAddress": null
    },
    {
      "status": "0x1",
      "cumulativeGasUsed": "0xab431a",
      "logs": [
        {
          "address": "0x000000000022d473030f116ddee9f6b43ac78ba3",
          "topics": [
            "0xda9fa7c1b00402c17d0161b249b1ab8bbec047c5a52207b9c112deffd817036b",
            "0x000000000000000000000000228a49443c9fb42eb71c4b2a4c08d64ba9c6b6cc",
            "0x000000000000000000000000d46836eab8ed37c8a157e5668764b0549d9f2ff8",
            "0x000000000000000000000000429ba70129df741b2ca2a85bc3a2a3328e5c09b4"
          ],
          "data": "0x000000000000000000000000ffffffffffffffffffffffffffffffffffffffff0000000000000000000000000000000000000000000000000000ffffffffffff",
          "blockHash": "0x505985670f8df9c21c889aaa643f7a6362e7478fa1e05c8622ffef633ff8ed5b",
          "blockNumber": "0xac8e9f",
          "blockTimestamp": "0x6a5d5144",
          "transactionHash": "0x6f1983d7bd37324043eae0511590e30ebcd9973741c8e2fc8f96379f5c6134da",
          "transactionIndex": "0x42",
          "logIndex": "0x210",
          "removed": false
        }
      ],
      "logsBloom": "0x00010000000000000000000000000040000000000000000000000000000000000000000000000040080000000000000000000000000000000000000000080000000000000000000000000000000000000000000000000000000000000000000000000000000000000000000000000000000000000000000000080840000000000020000000000000000000000000000000000000000000000000000000000000000000000000000000000000000000000000000000000000000000080000000000200000000000000000000000000000000000000000000040000000000000000000000000000000000000000000000000000100000000000000800000000400",
      "type": "0x2",
      "transactionHash": "0x6f1983d7bd37324043eae0511590e30ebcd9973741c8e2fc8f96379f5c6134da",
      "transactionIndex": "0x42",
      "blockHash": "0x505985670f8df9c21c889aaa643f7a6362e7478fa1e05c8622ffef633ff8ed5b",
      "blockNumber": "0xac8e9f",
      "gasUsed": "0xbaca",
      "effectiveGasPrice": "0x414c80f5",
      "from": "0x228a49443c9fb42eb71c4b2a4c08d64ba9c6b6cc",
      "to": "0x000000000022d473030f116ddee9f6b43ac78ba3",
      "contractAddress": null
    },
    {
      "status": "0x1",
      "cumulativeGasUsed": "0xabfaa3",
      "logs": [
        {
          "address": "0x115f0e0648ccb0a6d936cfcec1445a9d7ec53c9b",
          "topics": [
            "0x8c5be1e5ebec7d5bd14f71427d1e84f3dd0314c0f7b2291e5b200ac8c7c3b925",
            "0x000000000000000000000000228a49443c9fb42eb71c4b2a4c08d64ba9c6b6cc",
            "0x000000000000000000000000000000000022d473030f116ddee9f6b43ac78ba3"
          ],
          "data": "0xffffffffffffffffffffffffffffffffffffffffffffffffffffffffffffffff",
          "blockHash": "0x505985670f8df9c21c889aaa643f7a6362e7478fa1e05c8622ffef633ff8ed5b",
          "blockNumber": "0xac8e9f",
          "blockTimestamp": "0x6a5d5144",
          "transactionHash": "0x96519028f8cd78dcbd42367f426b5920d50e979ec759735d6717188241e52683",
          "transactionIndex": "0x43",
          "logIndex": "0x211",
          "removed": false
        }
      ],
      "logsBloom": "0x00000000000000000000000000000000000000000000000000000000000000000010000000000000000000000000000000000000800000100000000000200000000000000000000000004000000000000000000000000800000000000000000000000000000000000000000000000000000000000000000000080000000000000000000000000000000000000000000000000000000000000000000000000000020000000000000000000000000000000400000000000000000000000000000000200000000000000000000000000000000000000000000000000000000000000010000000000000000000000000000000000100000000000000000000000000",
      "type": "0x2",
      "transactionHash": "0x96519028f8cd78dcbd42367f426b5920d50e979ec759735d6717188241e52683",
      "transactionIndex": "0x43",
      "blockHash": "0x505985670f8df9c21c889aaa643f7a6362e7478fa1e05c8622ffef633ff8ed5b",
      "blockNumber": "0xac8e9f",
      "gasUsed": "0xb789",
      "effectiveGasPrice": "0x414c80f5",
      "from": "0x228a49443c9fb42eb71c4b2a4c08d64ba9c6b6cc",
      "to": "0x115f0e0648ccb0a6d936cfcec1445a9d7ec53c9b",
      "contractAddress": null
    },
    {
      "status": "0x1",
      "cumulativeGasUsed": "0xacb56d",
      "logs": [
        {
          "address": "0x000000000022d473030f116ddee9f6b43ac78ba3",
          "topics": [
            "0xda9fa7c1b00402c17d0161b249b1ab8bbec047c5a52207b9c112deffd817036b",
            "0x000000000000000000000000228a49443c9fb42eb71c4b2a4c08d64ba9c6b6cc",
            "0x000000000000000000000000115f0e0648ccb0a6d936cfcec1445a9d7ec53c9b",
            "0x000000000000000000000000429ba70129df741b2ca2a85bc3a2a3328e5c09b4"
          ],
          "data": "0x000000000000000000000000ffffffffffffffffffffffffffffffffffffffff0000000000000000000000000000000000000000000000000000ffffffffffff",
          "blockHash": "0x505985670f8df9c21c889aaa643f7a6362e7478fa1e05c8622ffef633ff8ed5b",
          "blockNumber": "0xac8e9f",
          "blockTimestamp": "0x6a5d5144",
          "transactionHash": "0xb0718ccd7318e5bbe3f5bf10ba2416354bf889aca6415d6480932dec4e29fecc",
          "transactionIndex": "0x44",
          "logIndex": "0x212",
          "removed": false
        }
      ],
      "logsBloom": "0x000100000000000000000000000000000000000000000800000000000000000000000000000000400800000000000000000000000000000000000000000800000000000000000000000000000000000000000000000000000000000000000000000000000000000000000000000000000000000000000000000808000000000000280000000000000000000000000000000000000000000000000000000000000000000000000000000000000000000000000000000000000000000a0000000000200000000000000000000000000000000000000000000040000000000000000000000000000000000000000000000000000100000000000000000000000400",
      "type": "0x2",
      "transactionHash": "0xb0718ccd7318e5bbe3f5bf10ba2416354bf889aca6415d6480932dec4e29fecc",
      "transactionIndex": "0x44",
      "blockHash": "0x505985670f8df9c21c889aaa643f7a6362e7478fa1e05c8622ffef633ff8ed5b",
      "blockNumber": "0xac8e9f",
      "gasUsed": "0xbaca",
      "effectiveGasPrice": "0x414c80f5",
      "from": "0x228a49443c9fb42eb71c4b2a4c08d64ba9c6b6cc",
      "to": "0x000000000022d473030f116ddee9f6b43ac78ba3",
      "contractAddress": null
    },
    {
      "status": "0x1",
      "cumulativeGasUsed": "0xb42eb6",
      "logs": [
        {
          "address": "0xe03a1074c86cfedd5c142c4f04f1a1536e203543",
          "topics": [
            "0xdd466e674ea557f56295e2d0218a125ea4b4f0f6f3307b95f85e6110838d6438",
            "0x0ea4a6ea137d8e7bced50d5b3331a0de8035faf752ba66816d4ab9c3cf547865",
            "0x000000000000000000000000115f0e0648ccb0a6d936cfcec1445a9d7ec53c9b",
            "0x000000000000000000000000d46836eab8ed37c8a157e5668764b0549d9f2ff8"
          ],
          "data": "0x0000000000000000000000000000000000000000000000000000000000800000000000000000000000000000000000000000000000000000000000000000003c00000000000000000000000053b1b0a39eb0d674a2d8daa8d99c4ffa476bc08000000000000000000000000000000000000000010000000000000000000000000000000000000000000000000000000000000000000000000000000000000000",
          "blockHash": "0x505985670f8df9c21c889aaa643f7a6362e7478fa1e05c8622ffef633ff8ed5b",
          "blockNumber": "0xac8e9f",
          "blockTimestamp": "0x6a5d5144",
          "transactionHash": "0x03b18e327020654cb11b08cd59672f4eb3c0b49f9c7d937d20295301a6e5ebbf",
          "transactionIndex": "0x45",
          "logIndex": "0x213",
          "removed": false
        },
        {
          "address": "0x429ba70129df741b2ca2a85bc3a2a3328e5c09b4",
          "topics": [
            "0xddf252ad1be2c89b69c2b068fc378daa952ba7f163c4a11628f55a4df523b3ef",
            "0x0000000000000000000000000000000000000000000000000000000000000000",
            "0x000000000000000000000000228a49443c9fb42eb71c4b2a4c08d64ba9c6b6cc",
            "0x000000000000000000000000000000000000000000000000000000000000934a"
          ],
          "data": "0x",
          "blockHash": "0x505985670f8df9c21c889aaa643f7a6362e7478fa1e05c8622ffef633ff8ed5b",
          "blockNumber": "0xac8e9f",
          "blockTimestamp": "0x6a5d5144",
          "transactionHash": "0x03b18e327020654cb11b08cd59672f4eb3c0b49f9c7d937d20295301a6e5ebbf",
          "transactionIndex": "0x45",
          "logIndex": "0x214",
          "removed": false
        },
        {
          "address": "0xe03a1074c86cfedd5c142c4f04f1a1536e203543",
          "topics": [
            "0xf208f4912782fd25c7f114ca3723a2d5dd6f3bcc3ac8db5af63baa85f711d5ec",
            "0x0ea4a6ea137d8e7bced50d5b3331a0de8035faf752ba66816d4ab9c3cf547865",
            "0x000000000000000000000000429ba70129df741b2ca2a85bc3a2a3328e5c09b4"
          ],
          "data": "0xffffffffffffffffffffffffffffffffffffffffffffffffffffffffffff5038000000000000000000000000000000000000000000000000000000000000afc80000000000000000000000000000000000000000000000060f4da7fe284f5dea000000000000000000000000000000000000000000000000000000000000934a",
          "blockHash": "0x505985670f8df9c21c889aaa643f7a6362e7478fa1e05c8622ffef633ff8ed5b",
          "blockNumber": "0xac8e9f",
          "blockTimestamp": "0x6a5d5144",
          "transactionHash": "0x03b18e327020654cb11b08cd59672f4eb3c0b49f9c7d937d20295301a6e5ebbf",
          "transactionIndex": "0x45",
          "logIndex": "0x215",
          "removed": false
        },
        {
          "address": "0x115f0e0648ccb0a6d936cfcec1445a9d7ec53c9b",
          "topics": [
            "0xddf252ad1be2c89b69c2b068fc378daa952ba7f163c4a11628f55a4df523b3ef",
            "0x000000000000000000000000228a49443c9fb42eb71c4b2a4c08d64ba9c6b6cc",
            "0x000000000000000000000000e03a1074c86cfedd5c142c4f04f1a1536e203543"
          ],
          "data": "0x0000000000000000000000000000000000000000000000056bc75e2d63100000",
          "blockHash": "0x505985670f8df9c21c889aaa643f7a6362e7478fa1e05c8622ffef633ff8ed5b",
          "blockNumber": "0xac8e9f",
          "blockTimestamp": "0x6a5d5144",
          "transactionHash": "0x03b18e327020654cb11b08cd59672f4eb3c0b49f9c7d937d20295301a6e5ebbf",
          "transactionIndex": "0x45",
          "logIndex": "0x216",
          "removed": false
        },
        {
          "address": "0xd46836eab8ed37c8a157e5668764b0549d9f2ff8",
          "topics": [
            "0xddf252ad1be2c89b69c2b068fc378daa952ba7f163c4a11628f55a4df523b3ef",
            "0x000000000000000000000000228a49443c9fb42eb71c4b2a4c08d64ba9c6b6cc",
            "0x000000000000000000000000e03a1074c86cfedd5c142c4f04f1a1536e203543"
          ],
          "data": "0x0000000000000000000000000000000000000000000000056bc75e2d63100000",
          "blockHash": "0x505985670f8df9c21c889aaa643f7a6362e7478fa1e05c8622ffef633ff8ed5b",
          "blockNumber": "0xac8e9f",
          "blockTimestamp": "0x6a5d5144",
          "transactionHash": "0x03b18e327020654cb11b08cd59672f4eb3c0b49f9c7d937d20295301a6e5ebbf",
          "transactionIndex": "0x45",
          "logIndex": "0x217",
          "removed": false
        }
      ],
      "logsBloom": "0x00000000000008000000001000200040000200000000080000000000080000000010000000000040080000000000000000000100000000100000000000000000000000000000000000004008000000000000000000000000000000000000000000000020020010000200000080000800000000000000100000080850000000000008000001000008000010000000000000000001000000000000000000200000000004000000000000000000000000000400000000400000000000020000000000200002000000000000000000000000000010000000000000001000000020001000000000000000000000000000000004000100000000000000800800000000",
      "type": "0x2",
      "transactionHash": "0x03b18e327020654cb11b08cd59672f4eb3c0b49f9c7d937d20295301a6e5ebbf",
      "transactionIndex": "0x45",
      "blockHash": "0x505985670f8df9c21c889aaa643f7a6362e7478fa1e05c8622ffef633ff8ed5b",
      "blockNumber": "0xac8e9f",
      "gasUsed": "0x77949",
      "effectiveGasPrice": "0x414c80f5",
      "from": "0x228a49443c9fb42eb71c4b2a4c08d64ba9c6b6cc",
      "to": "0x429ba70129df741b2ca2a85bc3a2a3328e5c09b4",
      "contractAddress": null
    }
  ],
  "libraries": [],
  "pending": [],
  "returns": {},
  "timestamp": 1784500548731,
  "chain": 11155111,
  "commit": "1fbf955"
}