{
  "transactions": [
    {
      "hash": "0x85b8998b095b8d572ab997028fbbd3545e53a6891425d44267d5aabd8577adbe",
      "transactionType": "CALL",
      "contractName": null,
      "contractAddress": "0x115f0e0648ccb0a6d936cfcec1445a9d7ec53c9b",
      "function": "approve(address,uint256)",
      "arguments": [
        "0xf13D190e9117920c703d79B5F33732e10049b115",
        "115792089237316195423570985008687907853269984665640564039457584007913129639935"
      ],
      "transaction": {
        "from": "0x228a49443c9fb42eb71c4b2a4c08d64ba9c6b6cc",
        "to": "0x115f0e0648ccb0a6d936cfcec1445a9d7ec53c9b",
        "gas": "0x10cb1",
        "value": "0x0",
        "input": "0x095ea7b3000000000000000000000000f13d190e9117920c703d79b5f33732e10049b115ffffffffffffffffffffffffffffffffffffffffffffffffffffffffffffffff",
        "nonce": "0x16",
        "chainId": "0xaa36a7"
      },
      "additionalContracts": [],
      "isFixedGasLimit": false
    },
    {
      "hash": "0x54830a5f8c0dbbce8be047e3d15b5cb47a0003a475a00ae9acbf15c839bc3feb",
      "transactionType": "CALL",
      "contractName": null,
      "contractAddress": "0xd46836eab8ed37c8a157e5668764b0549d9f2ff8",
      "function": "approve(address,uint256)",
      "arguments": [
        "0xf13D190e9117920c703d79B5F33732e10049b115",
        "115792089237316195423570985008687907853269984665640564039457584007913129639935"
      ],
      "transaction": {
        "from": "0x228a49443c9fb42eb71c4b2a4c08d64ba9c6b6cc",
        "to": "0xd46836eab8ed37c8a157e5668764b0549d9f2ff8",
        "gas": "0x10cb1",
        "value": "0x0",
        "input": "0x095ea7b3000000000000000000000000f13d190e9117920c703d79b5f33732e10049b115ffffffffffffffffffffffffffffffffffffffffffffffffffffffffffffffff",
        "nonce": "0x17",
        "chainId": "0xaa36a7"
      },
      "additionalContracts": [],
      "isFixedGasLimit": false
    },
    {
      "hash": "0x55c0b659247621184b051db9e2799d2b5991cfa4cb95857fa60dda7f91c5e251",
      "transactionType": "CALL",
      "contractName": null,
      "contractAddress": "0xf13d190e9117920c703d79b5f33732e10049b115",
      "function": "swapExactTokensForTokens(uint256,uint256,bool,(address,address,uint24,int24,address),bytes,address,uint256)",
      "arguments": [
        "1000000000000000000",
        "0",
        "true",
        "(0x115f0E0648CCb0a6d936cFcEc1445a9d7Ec53c9B, 0xD46836eaB8ED37C8A157E5668764B0549D9F2ff8, 8388608, 60, 0x53b1B0A39Eb0d674A2d8daa8D99C4FFA476BC080)",
        "0x",
        "0x228a49443C9Fb42eB71C4B2A4c08d64BA9c6B6Cc",
        "1784500686"
      ],
      "transaction": {
        "from": "0x228a49443c9fb42eb71c4b2a4c08d64ba9c6b6cc",
        "to": "0xf13d190e9117920c703d79b5f33732e10049b115",
        "gas": "0x3079a",
        "value": "0x0",
        "input": "0xb1a0d5710000000000000000000000000000000000000000000000000de0b6b3a764000000000000000000000000000000000000000000000000000000000000000000000000000000000000000000000000000000000000000000000000000000000001000000000000000000000000115f0e0648ccb0a6d936cfcec1445a9d7ec53c9b000000000000000000000000d46836eab8ed37c8a157e5668764b0549d9f2ff80000000000000000000000000000000000000000000000000000000000800000000000000000000000000000000000000000000000000000000000000000003c00000000000000000000000053b1b0a39eb0d674a2d8daa8d99c4ffa476bc0800000000000000000000000000000000000000000000000000000000000000160000000000000000000000000228a49443c9fb42eb71c4b2a4c08d64ba9c6b6cc000000000000000000000000000000000000000000000000000000006a5d51ce0000000000000000000000000000000000000000000000000000000000000000",
        "nonce": "0x18",
        "chainId": "0xaa36a7"
      },
      "additionalContracts": [],
      "isFixedGasLimit": false
    }
  ],
  "receipts": [
    {
      "status": "0x1",
      "cumulativeGasUsed": "0xa69e45",
      "logs": [
        {
          "address": "0x115f0e0648ccb0a6d936cfcec1445a9d7ec53c9b",
          "topics": [
            "0x8c5be1e5ebec7d5bd14f71427d1e84f3dd0314c0f7b2291e5b200ac8c7c3b925",
            "0x000000000000000000000000228a49443c9fb42eb71c4b2a4c08d64ba9c6b6cc",
            "0x000000000000000000000000f13d190e9117920c703d79b5f33732e10049b115"
          ],
          "data": "0xffffffffffffffffffffffffffffffffffffffffffffffffffffffffffffffff",
          "blockHash": "0xd3ce4f5c9fc82b340c5aa2fd44865e2b3244304fffa2a6499983de47b0e25a73",
          "blockNumber": "0xac8ea9",
          "blockTimestamp": "0x6a5d51c8",
          "transactionHash": "0x85b8998b095b8d572ab997028fbbd3545e53a6891425d44267d5aabd8577adbe",
          "transactionIndex": "0x44",
          "logIndex": "0x164",
          "removed": false
        }
      ],
      "logsBloom": "0x00000000000000000000000000000000000000000000000000800000000000000010000000000000000000000000000000000000000000100000000000200000000000000000000000000000000000000000000000000000000000000000000000000000000000000000000000000000000000000000000000080000000000000000000000080000000000000000000000000000000000000000000000000000020000000000000000000000000000000400000000000000000000000000000000200000000000000000000000000000000000000000000000000000000080000010000000000000000000000000000000000100000000000000000000000000",
      "type": "0x2",
      "transactionHash": "0x85b8998b095b8d572ab997028fbbd3545e53a6891425d44267d5aabd8577adbe",
      "transactionIndex": "0x44",
      "blockHash": "0xd3ce4f5c9fc82b340c5aa2fd44865e2b3244304fffa2a6499983de47b0e25a73",
      "blockNumber": "0xac8ea9",
      "gasUsed": "0xb7b9",
      "effectiveGasPrice": "0x418c0fae",
      "from": "0x228a49443c9fb42eb71c4b2a4c08d64ba9c6b6cc",
      "to": "0x115f0e0648ccb0a6d936cfcec1445a9d7ec53c9b",
      "contractAddress": null
    },
    {
      "status": "0x1",
      "cumulativeGasUsed": "0xa755fe",
      "logs": [
        {
          "address": "0xd46836eab8ed37c8a157e5668764b0549d9f2ff8",
          "topics": [
            "0x8c5be1e5ebec7d5bd14f71427d1e84f3dd0314c0f7b2291e5b200ac8c7c3b925",
            "0x000000000000000000000000228a49443c9fb42eb71c4b2a4c08d64ba9c6b6cc",
            "0x000000000000000000000000f13d190e9117920c703d79b5f33732e10049b115"
          ],
          "data": "0xffffffffffffffffffffffffffffffffffffffffffffffffffffffffffffffff",
          "blockHash": "0xd3ce4f5c9fc82b340c5aa2fd44865e2b3244304fffa2a6499983de47b0e25a73",
          "blockNumber": "0xac8ea9",
          "blockTimestamp": "0x6a5d51c8",
          "transactionHash": "0x55c0b659247621184b051db9e2799d2b5991cfa4cb95857fa60dda7f91c5e251",
          "transactionIndex": "0x45",
          "logIndex": "0x165",
          "removed": false
        }
      ],
      "logsBloom": "0x00000000000000000000000000200000000000000000000000800000000000000000000000000000000000000000000000000000000000000000000000200000000000000000000000000000000000000000000000000000000000000000000000000020000010000000000000000000000000000000000000080000000000000000000000080000000000000000000000000000000000000000000000000000020000000000000000000000000000000000000000000000000000000000000000200000000000000000000000000000000000000000000000000000000080000010000000000000000000000000000000000100000000000000000000000000",
      "type": "0x2",
      "transactionHash": "0x55c0b659247621184b051db9e2799d2b5991cfa4cb95857fa60dda7f91c5e251",
      "transactionIndex": "0x45",
      "blockHash": "0xd3ce4f5c9fc82b340c5aa2fd44865e2b3244304fffa2a6499983de47b0e25a73",
      "blockNumber": "0xac8ea9",
      "gasUsed": "0xb7b9",
      "effectiveGasPrice": "0x418c0fae",
      "from": "0x228a49443c9fb42eb71c4b2a4c08d64ba9c6b6cc",
      "to": "0xd46836eab8ed37c8a157e5668764b0549d9f2ff8",
      "contractAddress": null
    },
    {
      "status": "0x1",
      "cumulativeGasUsed": "0xa98784",
      "logs": [
        {
          "address": "0xe03a1074c86cfedd5c142c4f04f1a1536e203543",
          "topics": [
            "0x40e9cecb9f5f1f1c5b9c97dec2917b7ee92e57ba5563708daca94dd84ad7112f",
            "0x0ea4a6ea137d8e7bced50d5b3331a0de8035faf752ba66816d4ab9c3cf547865",
            "0x000000000000000000000000f13d190e9117920c703d79b5f33732e10049b115"
          ],
          "data": "0xfffffffffffffffffffffffffffffffffffffffffffffffff21f494c589c00000000000000000000000000000000000000000000000000000db181f8d7a453d90000000000000000000000000000000000000000fdbd83233610144beb627deb0000000000000000000000000000000000000000000000060f4da7fe284f5deaffffffffffffffffffffffffffffffffffffffffffffffffffffffffffffff4e0000000000000000000000000000000000000000000000000000000000001194",
          "blockHash": "0xd3ce4f5c9fc82b340c5aa2fd44865e2b3244304fffa2a6499983de47b0e25a73",
          "blockNumber": "0xac8ea9",
          "blockTimestamp": "0x6a5d51c8",
          "transactionHash": "0x54830a5f8c0dbbce8be047e3d15b5cb47a0003a475a00ae9acbf15c839bc3feb",
          "transactionIndex": "0x46",
          "logIndex": "0x166",
          "removed": false
        },
        {
          "address": "0x115f0e0648ccb0a6d936cfcec1445a9d7ec53c9b",
          "topics": [
            "0xddf252ad1be2c89b69c2b068fc378daa952ba7f163c4a11628f55a4df523b3ef",
            "0x000000000000000000000000228a49443c9fb42eb71c4b2a4c08d64ba9c6b6cc",
            "0x000000000000000000000000e03a1074c86cfedd5c142c4f04f1a1536e203543"
          ],
          "data": "0x0000000000000000000000000000000000000000000000000de0b6b3a7640000",
          "blockHash": "0xd3ce4f5c9fc82b340c5aa2fd44865e2b3244304fffa2a6499983de47b0e25a73",
          "blockNumber": "0xac8ea9",
          "blockTimestamp": "0x6a5d51c8",
          "transactionHash": "0x54830a5f8c0dbbce8be047e3d15b5cb47a0003a475a00ae9acbf15c839bc3feb",
          "transactionIndex": "0x46",
          "logIndex": "0x167",
          "removed": false
        },
        {
          "address": "0xd46836eab8ed37c8a157e5668764b0549d9f2ff8",
          "topics": [
            "0xddf252ad1be2c89b69c2b068fc378daa952ba7f163c4a11628f55a4df523b3ef",
            "0x000000000000000000000000e03a1074c86cfedd5c142c4f04f1a1536e203543",
            "0x000000000000000000000000228a49443c9fb42eb71c4b2a4c08d64ba9c6b6cc"
          ],
          "data": "0x0000000000000000000000000000000000000000000000000db181f8d7a453d9",
          "blockHash": "0xd3ce4f5c9fc82b340c5aa2fd44865e2b3244304fffa2a6499983de47b0e25a73",
          "blockNumber": "0xac8ea9",
          "blockTimestamp": "0x6a5d51c8",
          "transactionHash": "0x54830a5f8c0dbbce8be047e3d15b5cb47a0003a475a00ae9acbf15c839bc3feb",
          "transactionIndex": "0x46",
          "logIndex": "0x168",
          "removed": false
        }
      ],
      "logsBloom": "0x00000000000008000000000000200000000000000000000000800000000000000010000000000000000000000000000000000100040000100000000000000000000000000000000000004008000000000000000000000020000000000000000000000020000010000000000080000000000000000000100000080010000000000000000000080000000010000000000000000000000000000000000000000000000000000000000000000000000000000400000000000000000000000000000000200002000000000000000000000000000010000000000000001000000080001000000000000000004000000000000000000100000000000000000000000000",
      "type": "0x2",
      "transactionHash": "0x54830a5f8c0dbbce8be047e3d15b5cb47a0003a475a00ae9acbf15c839bc3feb",
      "transactionIndex": "0x46",
      "blockHash": "0xd3ce4f5c9fc82b340c5aa2fd44865e2b3244304fffa2a6499983de47b0e25a73",
      "blockNumber": "0xac8ea9",
      "gasUsed": "0x23186",
      "effectiveGasPrice": "0x418c0fae",
      "from": "0x228a49443c9fb42eb71c4b2a4c08d64ba9c6b6cc",
      "to": "0xf13d190e9117920c703d79b5f33732e10049b115",
      "contractAddress": null
    }
  ],
  "libraries": [],
  "pending": [],
  "returns": {},
  "timestamp": 1784500681761,
  "chain": 11155111,
  "commit": "1fbf955"
}